:020000040000fa
:080000000040040000000000b4
:020000040000fa
:04000800fe410000b5
:020000040000fa
:04000c00404200006e
:020000040000fa
:04001000a04200000a
:020000040000fa
:040014001e42000088
:020000040000fa
:040018006042000042
:020000040000fa
:04001c00804200001e
:020000040000fa
:04002000c0420000da
:020000040000fa
:04002400ea450000a9
:020000040000fa
:04002800ea450000a5
:020000040000fa
:04002c00ea450000a1
:020000040000fa
:04003000ea4500009d
:020000040000fa
:04003400b4440000d0
:020000040000fa
:0400380086410000fd
:020000040000fa
:04003c00ea45000091
:020000040000fa
:04004000ea4500008d
:020000040000fa
:04004400ea45000089
:020000040000fa
:04004800ea45000085
:020000040000fa
:04004c00ea45000081
:020000040000fa
:04005000ea4500007d
:020000040000fa
:040054004e43000017
:020000040000fa
:04005800ec42000076
:020000040000fa
:04005c004641000019
:020000040000fa
:04006000a4410000b7
:020000040000fa
:04006400ea45000069
:020000040000fa
:04006800ea45000065
:020000040000fa
:04006c00ea45000061
:020000040000fa
:04007000ea4500005d
:020000040000fa
:04007400ea45000059
:020000040000fa
:04007800ea45000055
:020000040000fa
:04007c00ea45000051
:020000040000fa
:04008000ea4500004d
:020000040000fa
:04008400ea45000049
:020000040000fa
:04008800c241000071
:020000040000fa
:04008c00ea45000041
:020000040000fa
:04009000ea4500003d
:020000040000fa
:04009400ea45000039
:020000040000fa
:04009800ea45000035
:020000040000fa
:04009c00ea45000031
:020000040000fa
:0400a00032440000e6
:020000040000fa
:0400a400d043000045
:020000040000fa
:0400a800ea45000025
:020000040000fa
:0400ac00ea45000021
:020000040000fa
:0400b00062450000a5
:020000040000fa
:0400b400ea4400001a
:020000040000fa
:0400b800e041000023
:020000040000fa
:0400bc00ea45000011
:020000040000fa
:0400c000ea4500000d
:020000040000fa
:0400c400ea45000009
:020000040000fa
:0400c800ea45000005
:020000040000fa
:0400cc00ea45000001
:020000040000fa
:0400d000ea450000fd
:020000040000fa
:0400d400ea450000f9
:020000040000fa
:0400d800ea450000f5
:020000040000fa
:0400dc00ea450000f1
:020000040000fa
:0400e000ea450000ed
:020000040000fa
:0400e400ea450000e9
:020000040000fa
:0400e800ea450000e5
:020000040000fa
:0400ec00ea450000e1
:020000040000fa
:0400f000ea450000dd
:020000040000fa
:0400f400ea450000d9
:020000040000fa
:0400f800ea450000d5
:020000040000fa
:0400fc00ea450000d1
:020000040000fa
:04010000ea450000cc
:020000040000fa
:04010400e2450000d0
:020000040000fa
:040108006a45000044
:020000040000fa
:04010c00ea450000c0
:020000040000fa
:04011000ea450000bc
:020000040000fa
:04011400ea450000b8
:020000040000fa
:04011800ea450000b4
:020000040000fa
:04011c00ea450000b0
:020000040000fa
:04012000ea450000ac
:020000040000fa
:04012400ea450000a8
:020000040000fa
:04012800ea450000a4
:020000040000fa
:04012c00ba430000d2
:020000040000fa
:040130009e440000e9
:020000040000fa
:04013400ea45000098
:020000040000fa
:04013800ea45000094
:020000040000fa
:04013c00ea45000090
:020000040000fa
:04014000ea4500008c
:020000040000fa
:04014400ea45000088
:020000040000fa
:04014800ea45000084
:020000040000fa
:04014c00ea45000080
:020000040000fa
:04015000ea4500007c
:020000040000fa
:04015400ea45000078
:020000040000fa
:04015800ea45000074
:020000040000fa
:04015c00ea45000070
:020000040000fa
:04016000ea4500006c
:020000040000fa
:04016400ea45000068
:020000040000fa
:04016800ea45000064
:020000040000fa
:04016c00ea45000060
:020000040000fa
:04017000ea4500005c
:020000040000fa
:04017400ea45000058
:020000040000fa
:04017800ea45000054
:020000040000fa
:04017c00ea45000050
:020000040000fa
:04018000ea4500004c
:020000040000fa
:04018400ea45000048
:020000040000fa
:04018800ea45000044
:020000040000fa
:04018c00ea45000040
:020000040000fa
:04019000ea4500003c
:020000040000fa
:04019400ea45000038
:020000040000fa
:04019800ea45000034
:020000040000fa
:04019c00ea45000030
:020000040000fa
:0401a000ea4500002c
:020000040000fa
:0401a400ea45000028
:020000040000fa
:0401a800ea45000024
:020000040000fa
:0401ac00ea45000020
:020000040000fa
:0401b000ea4500001c
:020000040000fa
:0401b400ea45000018
:020000040000fa
:0401b800ea45000014
:020000040000fa
:0401bc00ea45000010
:020000040000fa
:0401c000ea4500000c
:020000040000fa
:0401c400ea45000008
:020000040000fa
:0401c800ea45000004
:020000040000fa
:0401cc00ea45000000
:020000040000fa
:0401d000ea450000fc
:020000040000fa
:0401d400ea450000f8
:020000040000fa
:0401d800ea450000f4
:020000040000fa
:0401dc00ea450000f0
:020000040000fa
:0401e000ea450000ec
:020000040000fa
:0401e400ea450000e8
:020000040000fa
:0401e800ea450000e4
:020000040000fa
:0401ec00ea450000e0
:020000040000fa
:0401f000ea450000dc
:020000040000fa
:0401f400ea450000d8
:020000040000fa
:0401f800ea450000d4
:020000040000fa
:0401fc00ea450000d0
:020000040000fa
:04020000ea450000cb
:020000040000fa
:04020400ea450000c7
:020000040000fa
:04020800ea450000c3
:020000040000fa
:04020c00ea450000bf
:020000040000fa
:04021000ea450000bb
:020000040000fa
:04021400ea450000b7
:020000040000fa
:04021800ea450000b3
:020000040000fa
:04021c00ea450000af
:020000040000fa
:04022000ea450000ab
:020000040000fa
:04022400ea450000a7
:020000040000fa
:04022800ea450000a3
:020000040000fa
:04022c00ea4500009f
:020000040000fa
:04023000ea4500009b
:020000040000fa
:04023400ea45000097
:020000040000fa
:04023800ea45000093
:020000040000fa
:04023c00ea4500008f
:020000040000fa
:04024000ea4500008b
:020000040000fa
:04024400ea45000087
:020000040000fa
:04024800ea45000083
:020000040000fa
:04024c00ea4500007f
:020000040000fa
:04025000ea4500007b
:020000040000fa
:04025400ea45000077
:020000040000fa
:04025800ea45000073
:020000040000fa
:04025c00ea4500006f
:020000040000fa
:04026000ea4500006b
:020000040000fa
:04026400ea45000067
:020000040000fa
:04026800ea45000063
:020000040000fa
:04026c00ea4500005f
:020000040000fa
:04027000ea4500005b
:020000040000fa
:04027400ea45000057
:020000040000fa
:04027800ea45000053
:020000040000fa
:04027c00ea4500004f
:020000040000fa
:04028000ea4500004b
:020000040000fa
:10050000436500006369000020650000737400000b
:10051000207500006e2000007465000073740000f8
:1005200000000000000000000000000000000000cb
:1005300000000000000000000000000000000000bb
:1005400000000000000000000000000000000000ab
:10055000000000000000000000000000000000009b
:10056000000000000000000000000000000000008b
:10057000000000000000000000000000000000007b
:10058000000000000000000000000000000000006b
:10059000000000000000000000000000000000005b
:1005a000000000000000000000000000000000004b
:1005b000000000000000000000000000000000003b
:1005c000000000000000000000000000000000002b
:1005d000000000000000000000000000000000001b
:1005e000000000000000000000000000000000000b
:1005f00000000000000000000000000000000000fb
:020000040000fa
:0406000000010000f5
:020000040000fa
:108000002f3121000eff27000e0188000000000024
:10801000000020000000e00002003200000120000b
:108020002002880014000700ec0207000000e000b6
:1080300003003a0040c22600010020000200370081
:108040000000200001002000810f700001003200bc
:108050000f000700000020000000e00002003200d6
:1080600000000200000000009a5d02000000000015
:108070000040da000000fe00200020000000e000c8
:10808000020032000020200090018800000006005d
:10809000a1028800800478000000eb001f00370078
:1080a000e284440054a0b4009905ba00e28444007c
:1080b00054a0b4009906ba00e284440054a0b4006d
:1080c0000006eb00476fde00fd07b200ae0188003e
:1080d000636ce10003003a000ad801000000eb00e5
:1080e0000e003700606ce10008003a00004deb0024
:1080f0000a05e800020039003420ec000af0a00074
:108100008b05e900f9ff3e00040037006168e100db
:10811000010032000086eb000b00070019c7ba000f
:108120000e04e0001905ba0003003a000a00e0005e
:10813000dbff3a0000000600fe07b200ae02880036
:108140008a047800f5ff37000cd0a300e20f4d0041
:108150001c003b0089027800354dba000a05e80092
:10816000020039003420ec000af0a0008b05e90081
:108170000f003200254dba000a05e8000200390060
:108180003420ec000af0a0008b05e9000800320062
:108190000c00e0000600320015cdba000a05e80028
:1081a000020039003420ec000af0a0008b05e90041
:1081b0008984e80054a0b4000b00e000e2ff3a001c
:1081c000000006009902ba00055d78008b05e90001
:1081d000f7ff3200c82ade00055d78008b05e90054
:1081e000f3ff32000c00e000f1ff320019ddba00ad
:1081f000eeff3700346d040000000000e26104006f
:108200000000000000620400000000003c65040063
:10821000000000005a65040000000000906a04009d
:10822000000000009a4e040000000000ae4e040062
:1082300000000000c24e040000000000d64e040002
:1082400000000000e84e0400000000006e5a040028
:1082500000000000825a040000000000965a04004a
:1082600000000000aa5a040000000000bc5a0400ec
:1082700000000000965f040000000000a85f0400fa
:1082800000000000da5f0400000000003600f80083
:10829000809fbe00829fbe00849fbe00869fbe005e
:1082a0003200f8003400f80010002000a00188001f
:1082b0000020200000d0fe000000fa0001408000f5
:1082c00000002200008060000000e0000600320094
:1082d000c08380000000e00002003200c083800004
:1082e0000000010001a8a9000080fa003400f90094
:1082f0003200f9004f03be004f02be004f01be0026
:108300004f00be003600f900004006003600f800bd
:10831000809fbe00829fbe00849fbe00869fbe00dd
:108320000000fa003c1507000088a9000080fa0050
:108330004f03be004f02be004f01be004f00be0003
:108340003600f900004006003600f800809fbe00ad
:10835000829fbe00849fbe00869fbe000000fa0080
:108360003015070001c8a9000080fa004f03be00c5
:108370004f02be004f01be004f00be003600f900a4
:10838000004006003600f800809fbe00829fbe00bd
:10839000849fbe00869fbe000000fa0024150700df
:1083a0000308a9000080fa004f03be004f02be0080
:1083b0004f01be004f00be003600f900004006002d
:1083c0003600f800809fbe00829fbe00849fbe00e2
:1083d000869fbe000000fa00181507000488a90057
:1083e0000080fa004f03be004f02be004f01be00e6
:1083f0004f00be003600f900004006003600f800cd
:10840000809fbe00829fbe00849fbe00869fbe00ec
:108410000000fa00c028a9000000eb009b1507002f
:108420000080fa004f03be004f02be004f01be00a5
:108430004f00be003600f900004006003600f8008c
:10844000809fbe00829fbe00849fbe00869fbe00ac
:108450000000fa0092150700c048a9001000200093
:108460008a1507000080fa004f03be004f02be00cd
:108470004f01be004f00be003600f900004006006c
:108480003600f800809fbe00829fbe00849fbe0021
:10849000869fbe000000fa00c068a90020002000ee
:1084a0007a1507000080fa004f03be004f02be009d
:1084b0004f01be004f00be003600f900004006002c
:1084c0003600f800809fbe00829fbe00849fbe00e1
:1084d000869fbe000000fa00c088a900300020007e
:1084e0006a1507000080fa004f03be004f02be006d
:1084f0004f01be004f00be003600f90000400600ec
:108500003600f800809fbe00829fbe00849fbe00a0
:10851000869fbe000000fa00c0a8a900400020000d
:108520005a1507000080fa004f03be004f02be003c
:108530004f01be004f00be003600f90000400600ab
:108540003600f800809fbe00829fbe00849fbe0060
:10855000869fbe000000fa00c608a9007000200037
:108560004a1507000080fa004f03be004f02be000c
:108570004f01be004f00be003600f900004006006b
:108580003600f800809fbe00829fbe00849fbe0020
:10859000869fbe000000fa002146800000022000f5
:1085a000008060000000e00003003200c4a8a900c1
:1085b0009000200035150700204680007000600004
:1085c0000000e00003003200c488a900a0002000e1
:1085d0002e150700ffff37003600f800809fbe0011
:1085e000829fbe00849fbe00869fbe000000fa00ee
:1085f000708280000000e000020032007082800083
:10860000000001005182800040828000808f500075
:1086100002003a002188a900190037000188a9004a
:108620001000370050828000904078008180fb006d
:10863000211188000000e8005082880051828000eb
:10864000900e2100808f500002003a00000e2100a1
:10865000508288005182800040828000808f5000cc
:108660000600320011118000002020000080600010
:108670000000e000ebff32000100370000000000c6
:108680000080fa004f03be004f02be004f01be0043
:108690004f00be003600f900004006003600f8002a
:1086a000809fbe00829fbe00849fbe00869fbe004a
:1086b0000000fa00808280000000e000020032002a
:1086c00080828000000001000168a9001e003700c0
:1086d00021828000301180000040780080487800be
:1086e00021828000100f2100808f5000090032008d
:1086f000208280000000e80031828000810f50005d
:1087000004003200208280000000e80020828800ff
:108710000d00370021828000100f2100808f500053
:1087200007003a0031828000900e2100808f5000b7
:1087300003003200900e21002082880002003700e2
:1087400010c0b3004cf0b700101180006100600051
:108750000000e000deff3a000080fa004f03be0098
:108760004f02be004f01be004f00be003600f900b0
:1087700000400600801f78000000fa001011800001
:10878000620060000000e000010032002222a90027
:108790000828a9000080fa004f0078000040060079
:1087a0003600f800809fbe00829fbe00849fbe00fe
:1087b000869fbe000000fa00e08280000000e0001a
:1087c00002003200e082800000000100c1828000cf
:1087d000b0828000808f500002003a0023e8a90098
:1087e0001900370003e8a90010003700c08280009c
:1087f000904078008180fb00a11188000000e80013
:10880000c0828800c182800090302100808f50009b
:1088100002003a0000302100c0828800c18280003e
:10882000b0828000808f50000600320091118000dd
:1088300000202000008060000000e000ebff32001c
:1088400001003700000000000080fa004f03be0066
:108850004f02be004f01be004f00be003600f900bf
:10886000004006003600f800809fbe00829fbe00d8
:10887000849fbe00869fbe000000fa00f082800048
:108880000000e00002003200f082800000000100e1
:1088900003c8a9001e00370091828000b01180003b
:1088a00000407800804878009182800010312100db
:1088b000808f500009003200908280000000e800a4
:1088c000a1828000810f500004003200908280005d
:1088d0000000e800908288000d003700918280003f
:1088e00010312100808f500007003a00a1828000e3
:1088f00090302100808f5000030032009030210022
:10890000908288000200370010c0b3005af0b70010
:1089100090118000610060000000e000deff3a007e
:108920000080fa004f03be004f02be004f01be00a0
:108930004f00be003600f90000400600801f78009e
:108940000000fa0090118000620060000000e0006a
:10895000010032003222a9000848a9000080fa0074
:108960004f007800004006003600f800809fbe00ef
:10897000829fbe00849fbe00869fbe000000fa005a
:10898000e08380000000e00002003200e08380000d
:1089900000000100300f2100104078008040e80006
:1089a000300f210001487800200f210011c0b300d2
:1089b000014878000068a9000080fa004f03be005b
:1089c0004f02be004f01be004f00be003600f9004e
:1089d000004006003600f800809fbe00829fbe0067
:1089e000849fbe00869fbe000000fa0051208000d8
:1089f00000022000008060000000e0001f00320044
:108a00005120800000002200008060000000e00093
:108a100005003200008380000000e0000200320008
:108a20000083800000000100512080000000210030
:108a3000008060000000e00005003200108380002c
:108a40000000e000020032001083800000000100fe
:108a50005120800000802000008060000000e000c5
:108a600005003200208380000000e0000200320098
:108a700020838000000001000aa4a900502080008b
:108a8000620060000000e0000600320040838000c9
:108a90000000e0000200320040838000000001007e
:108aa0000a24a9000468a9000080fa004f03be0050
:108ab0004f02be004f01be004f00be003600f9005d
:108ac000004006000000fa000448a9000080fa00f7
:108ad000004006003600f800809fbe00829fbe0066
:108ae000849fbe00869fbe000000fa0051288000cf
:108af00000022000008060000000e0001f00320043
:108b00005128800000002200008060000000e0008a
:108b100005003200608380000000e00002003200a7
:108b200060838000000001005128800000002100c7
:108b3000008060000000e0000500320070838000cb
:108b40000000e0000200320070838000000001009d
:108b50005128800000802000008060000000e000bc
:108b600005003200808380000000e0000200320037
:108b700080838000000001000aa5a9005028800021
:108b8000620060000000e00006003200a083800068
:108b90000000e00002003200a0838000000001001d
:108ba0000a25a9000708a9000080fa004f03be00ab
:108bb0004f02be004f01be004f00be003600f9005c
:108bc000004006000000fa0006e8a9000080fa0054
:108bd000004006000040da000000fe000000050032
:020000040000fa
:048be000173a000040
:020000040000fa
:108be4000200fa00000f78001e007800e10f500028
:108bf40009003200e10f500005003900e20f500077
:108c040007003200e30f500007003200080037006d
:108c140001eba8000600370011eba80004003700a0
:108c240021eba8000200370031eba800000000008f
:108c34000080fa00000006000400fa00000f78002b
:108c44000e80e800010878001e007800e10f500053
:108c54000c003200e10f500005003900e20f500013
:108c64000d003200e30f50001000320014003700f2
:108c74000e80e8009000780021588800062bef0051
:108c84000f0037000e80e80090007800a15888009b
:108c9400162bef000a0037000e80e80090007800e1
:108ca40021598800262bef00050037000e80e800cc
:108cb40090007800a1598800362bef0000000000d6
:108cc4000080fa00000006000400fa00000f78009b
:108cd4000e80e800010878001e007800e10f5000c3
:108ce4000b003200e10f500005003900e20f500084
:108cf4000b003200e30f50000d003200100037006b
:108d04000e80e80090007800615888000c0037005d
:108d14000e80e80090007800e158880008003700d1
:108d24000e80e80090007800615988000400370044
:108d34000e80e80090007800e159880000000000ef
:108d44000080fa00000006000c00fa00889fbe00b4
:108d54008a1f780068044700004c78006a004700c6
:108d6400010878008000eb000e80e800010878001c
:108d74000000eb00000f78006000b80064044700b6
:108d8400008cbe0068004700104078000080fb00a3
:108d9400c400dd00001021000080400010007800b5
:108da400e10060000e80e800010878000e80e80011
:108db400100078000000e0001e003a006800470040
:108dc400104078000080fb00c400dd00001021008a
:108dd4000080400090007800c0ff21000080600007
:108de4004200de008000eb006a01470012017800b7
:108df4000089be006a00470010007800e4004000cb
:108e0400910078000100a10064004000010878008e
:108e140068004700104078000080fb00c400dd00bb
:108e2400001021000080400010007800620f6000f4
:108e34006c00370068004700104078000080fb0099
:108e4400c400dd0000102100008040001000780004
:108e54006104b800c0ff210001002000080578006b
:108e64000904780080047800810078000900650016
:108e74008100640081037800000378000600be00ce
:108e840064034700008bbe0064004700900090001c
:108e940010007800c000dd00000020006a034700d5
:108ea40016037800008bbe006a00470010007800ab
:108eb4001004780090049000680047001040780087
:108ec4000080fb004400dd008080e80000102100e9
:108ed40000804000100078006103b800f0ff20001b
:108ee400010020000605780007037800800378005d
:108ef400810078000700650081006300810278002a
:108f0400000278004628dd00ca20de0081007000df
:108f14004620dd0008004000898048006a024700be
:108f240014027800008abe006a004700100078002e
:108f34001003780090039000680047001040780008
:108f44000080fb004400dd00e4004000001021002c
:108f540000804000100078004a00de006102b80082
:108f6400f0ff2f00010020000404780005027800bf
:108f740080027800810078000500640081006200ae
:108f840081017800000178000200be000600400064
:108f9400878048006a014700120178000089be00fa
:108fa4006a00470010007800e40040009100780057
:108fb4000100a00064004000010878006800470038
:108fc400104078000080fb004400dd00e400400015
:108fd4000010210000804000900078000020200054
:108fe400008f60001e0078000000e00008003200de
:108ff4006a00470010007800e40040009100780007
:109004000110a00064004000010878009a003700b5
:109014006a00470010007800e400400091007800e6
:109024000110a10064004000010878006a004700b4
:1090340010007800660040001001780068004700c6
:10904400104078000080fb004400dd00e600400092
:1090540000102100008040001000780000407800db
:10906400004978006a00470010007800660040005c
:10907400100078000000e800e80047009140780004
:109084008180fb00c408dd006681400001102100de
:109094008100410091007800c808de00814078001a
:1090a400014878006a00470010007800660040001c
:1090b400100078000080e800e80047009140780044
:1090c4008180fb00c408dd0068814000011021009c
:1090d40081004100910078008140780001487800c7
:1090e4006a00470010007800660040001000780015
:1090f40063004000e8004700914078008180fb0055
:10910400c408dd0068814000011021008100410095
:1091140091007800c808de0081407800014878009a
:109124006a004700100078006600400010007800d4
:1091340064004000e8004700914078008180fb0013
:10914400c408dd006a814000011021008100410053
:109154009100780081407800014878006a00470057
:1091640010007800660040001000780065004000a0
:10917400e8004700914078008180fb00c408dd00ce
:109184006a814000011021008100410091007800b3
:10919400c808de0081407800014878006a00470072
:1091a400100078006600400010007800660040005f
:1091b400e8004700914078008180fb00c408dd008e
:1091c4006c81400001102100810041009100780071
:1091d40081407800014878006a0047001000780058
:1091e400660040001000780067004000e800470077
:1091f400914078008180fb00c408dd006c81400050
:10920400011021008100410091007800c808de00af
:1092140081407800014878006800470010407800d9
:109224000080fb004400dd00e40040000010210049
:109234000080400010007800004078006f4060001b
:109244006f4060006f406000ea00470091007800c2
:109254000080fb006f0060004200dd00648140007c
:109264009201780032fc2f0002816100020170003b
:1092740064804000020878004f0578004f04be0067
:109284000080fa00000006000400fa00000f7800d5
:109294000e80e800010878000e80e80010007800d5
:1092a4006400400010007800610060000000e000ed
:1092b40018003a000e80e80010007800900090003a
:1092c4001000780080007800f07f200000806000ab
:1092d400c200dd001e007800010878001e80e8004e
:1092e4008000eb00010878009e0078006480400054
:1092f4008e80e80091007800e480400091007800be
:10930400c208de00efc060008180fb000108780025
:109314002a0037000e80e8001000780090009000ca
:10932400100078004008de0080007800c0ff2100b3
:1093340000806000800078000100a0001e0078001a
:10934400010878001e81e8000e80e8001000780013
:109354009000900010007800ca09dd004600de008d
:1093640000807100c608de0080007800f0ff200055
:1093740000806000000978009e007800648140004d
:109384000e80e800100078006400400010007800af
:109394004200de006f4060008081fb000e80e80028
:1093a4001000780090009000100078000000780011
:1093b4004a00dd0000804100000978000e80e800ca
:1093c4001000780066004000100078000000e00003
:1093d4004b0032009e017800668041008e80e800d8
:1093e40091007800e6804000910078008100e80058
:1093f400914078008180fb004809dd008e80e80000
:1094040091007800e6804000910078009140780057
:109414008180fb0081004100010878009e007800f3
:10942400688040008e80e80091007800e68040006b
:1094340091007800e3804000914078008180fb0037
:109444004809dd008e80e80091007800e680400045
:10945400910078008180e800914078008180fb00d1
:1094640081004100010878009e0178006a80410073
:109474008e80e80091007800e6804000910078003a
:10948400e5804000914078008180fb004809dd00c0
:109494008e80e80091007800e6804000910078001a
:1094a400e4804000914078008180fb00810041000d
:1094b400010878009e0078006c8040008e80e800ef
:1094c40091007800e680400091007800e780400039
:1094d400914078008180fb004809dd008e80e8001f
:1094e40091007800e680400091007800e68040001a
:1094f400914078008180fb008100410001087800e0
:109504000080fa00000006000000fa002468a900a8
:109514000c24ef0001208000f08f2f0000806000f9
:1095240000a0a000002088000000000001208000ae
:10953400000e20008080600000082000808f500012
:10954400faff3a00300120008020880080192000b2
:10955400902088001000280030208800100020008f
:10956400a02088000024ef000004a800c12080008f
:10957400c0ff2f0000806000c02088008021800090
:109584007f00600080218800a02180007f006000af
:10959400a0218800c02180007f006000c0218800d5
:1095a40081218000c0ff2f0000806000802188009e
:1095b400a1218000c0ff2f0000806000a02188004e
:1095c400c1218000c0ff2f0000806000c0218800fe
:1095d4003224ef003624ef003a24ef003064a9006f
:1095e4003464a9003864a900002280007f00600070
:1095f4000022880001228000c0ff2f00008060004c
:10960400002288004224ef004064a9000121800068
:1096140000ff2f00008060000030a00000218800bf
:109624000004a90030e4a80031e4a80032e4a80052
:1096340033e4a80034e4a80035e4a80036e4a80024
:1096440037e4a80081218000c0ff2f000080600063
:109654008021880081218000f0cf2f0000806000ed
:109664008021880091218000c0ff2f0000806000cd
:109674009021880091218000f0cf2f0000806000ad
:1096840090218800a1218000c0ff2f00008060008d
:10969400a0218800a1218000f0cf2f00008060006d
:1096a400a0218800b1218000c0ff2f00008060004d
:1096b400b0218800b1218000f0cf2f00008060002d
:1096c400b02188002024ef002224ef002824ef009a
:1096d4002a24ef000a24a90001208000f08f2f0023
:1096e400008060000020880000000000012080004d
:1096f400000e2000008060000000e000fbff3a0044
:10970400a0e924008e010700e0ea24009601070086
:1097140020ec24009e01070060ed2400a501070051
:1097240080ee2400ad0107002468a8000c24a800e2
:109734000ca4a8002448a8000080fa000000060039
:109744000000fa002044200080007800200020005f
:109754005dfd07000010210080007800200020003b
:1097640035fd0700200020001dfd07000080fa00e1
:10977400000006000000fa00004420008000780089
:109784000000eb0050fd070000102100800078006d
:109794000000eb0028fd07000000eb0010fd0700af
:1097a4000080fa00000006000400fa008e80e80041
:1097b400800878000000eb00000f78002500070007
:1097c400e40f5000080032000e80e800100078001a
:1097d400e10f5000040032000e80e8001000780011
:1097e400e40f500016003a000e80e80010007800e4
:1097f40000407800674060000080fb006700600064
:109804004800dd0002208000f18f2f0081006100fc
:10981400010070000020880000000000002080008b
:109824004500de00674060000080fb008e80e80099
:1098340091007800810f5000f8ff3a0002003700d1
:1098440010002000000f78001e0078000080fa004d
:10985400000006000000fa00002080004500de0041
:10986400674060000080fb000080fa0000000600f2
:109874000c00fa0068014700000978006a004700fc
:10988400010878000000eb00000f7800014320007d
:109894000e80e800010878008040eb006600470075
:1098a400014878006a004700100078006400400016
:1098b400100078004200de006f4060000080fb0072
:1098c400e80f5000010034001e00a0008000eb00ef
:1098d4006400470001087800340037000e80e80077
:1098e400100078009040780000c8b30000c0600009
:1098f4000004e000230032000e80e800100078002d
:1099040010407800684060000004e0001d003a0048
:109914000110210064004700100078004400dd00bd
:1099240000804000ea0047009100780056fe0700de
:10993400680047001000780000407800e3406000b1
:109944000e80e80010007800e3c0600090417800c9
:10995400c2cfb30002c161008140710001487800a8
:109964000e80e80010007800904078000134a000d8
:109974000148780011c0b300660047000148780030
:109984000e0037000e80e800100078008000e80028
:109994000e80e80001087800640047001000780099
:1099a4008000e80064004700010878006400470074
:1099b40010007800e70f5000c8ff3600660047002b
:1099c400104078000004a2000004e000020032000d
:1099d4009e007800638f70001e0078000080fa00fb
:1099e400000006000800fa00e6004700800878003e
:1099f4008040eb000e80e8000148780066004700d4
:109a04001000780066004000100078000000e000bc
:109a140003003a000e80e80010407800340037005c
:109a240064004700012180000108780064004700b9
:109a3400100078000000e0002b0032000000eb0072
:109a4400000f78002300370050838000e4004700b3
:109a5400910078000008de0061006000004078009a
:109a64000004e0000f0032005083800000407800c2
:109a7400e600470091007800b3fc070050838000a3
:109a8400110020000008dd000080ea0001218000b0
:109a9400010060000021880011c0b3000e80e800be
:109aa40001487800508380000000e800508388005b
:109ab40050838000ef0f5000010036006a30ef0041
:109ac4000e80e800104078000004e00005003a0031
:109ad4001e0fe8001e007800ef0f5000daff36007a
:109ae40001003700000000000e80e80010407800fc
:109af4000080fa00000006000000fa0050208000f8
:109b04004d00de00614060000080fb0000f0a70013
:109b14000000ea000000ea004f00de000040780088
:109b24000080fa00000006000000fa0050208000c7
:109b34004b00de00614060000080fb0000f0a700e5
:109b44000000ea000000ea004f00de000040780058
:109b54000080fa00000006000000fa005020800097
:109b64004900de00614060000080fb0000f0a700b7
:109b74000000ea000000ea004f00de000040780028
:109b84000080fa00000006000200fa000040eb002a
:109b9400004f78000ec4bf000004e000050032004e
:109ba4000ec4bf000004e0000200350010c0b30082
:109bb400004f78001e4078000080fa000000060084
:109bc4000000fa00502080004c00de00614060007c
:109bd4000080fb0000f0a7000000ea000000ea009b
:109be4004f00de00004078000080fa00000006000c
:109bf4000000fa00502080004a00de00614060004e
:109c04000080fb0000f0a7000000ea000000ea006a
:109c14004f00de00004078000080fa0000000600db
:109c24000200fa000040eb00004f78000fc4bf00b0
:109c34000004e000050032000fc4bf000004e0008f
:109c44000200350010c0b300004f78001e407800b9
:109c54000080fa00000006000600fa000000eb0095
:109c6400000f78006400470001218000010878009b
:109c740064004700100078000000e0001700320084
:109c84008000eb000e80e800010878000f00370028
:109c94000e80e8009000780064004700100078000f
:109ca4000100de0061006000004078000004e00074
:109cb400010032001e0fe8000e80e800100078005a
:109cc4008000e8000e80e800010878000e80e800bb
:109cd40010007800ef0f5000edff36001e007800f2
:109ce400004078000080fa00000006000000fa003e
:109cf4000ac4a9000cc4a80001208000f08f2f0022
:109d0400008060000080a0000020880000000000a7
:109d140001208000000e20008080600000022000ee
:109d2400808f5000faff3a000080fa00000006001d
:109d34000000fa00880107000080fa000000060015
:109d44000200fa00000f78001e00780000838800eb
:109d54000080fa00000006000000fa0081010700fc
:109d64000080fa00000006000200fa00000f7800ec
:109d74001e007800108388000080fa0000000600ae
:109d84000000fa007a0107000080fa0000000600d3
:109d94000200fa00000f78001e007800208388007b
:109da4000080fa00000006000000fa000080fa00bb
:109db400000006000200fa00000f78001e00780080
:109dc400308388000080fa00000006000000fa00da
:109dd4006a0107000080fa00000006000200fa0091
:109de400000f78001e007800408388000080fa008d
:109df400000006001400fa00700147000009780012
:109e0400720047000108780003000900001feb00fe
:109e14008e00b1006e0047000e0878007200470003
:109e2400100078009000900010007800680147004e
:109e34000089be00720047001000780064004000f2
:109e440010407800614060000080fb006100600009
:109e5400ec004700910078000100a100810070002f
:109e64006c00470001087800720047001000780079
:109e74006500400010407800614060000080fb00f5
:109e84006100600000004000ec0047009100780091
:109e94000110a100810070006c00470001087800e7
:109ea40072004700100078006600400010407800ff
:109eb4006f4060000080fb006f0060004200dd0026
:109ec400ec0047001101780031fc2f008100610093
:109ed400810070006c004700010878006e004700a4
:109ee400900078007200470010007800670040007e
:109ef40010407800804878006e0047001000780019
:109f04000000e800f200470091007800e88040007b
:109f140091407800014878006e00470010007800f6
:109f24000080e800f200470091007800e9804000da
:109f340091407800014878006e00470010007800d6
:109f440063004000f200470091007800ea8040007e
:109f540091407800014878006e00470010007800b6
:109f640064004000f200470091007800eb8040005c
:109f740091407800014878006e0047001000780096
:109f840065004000f200470091007800ec8040003a
:109f940091407800014878006e0047001000780076
:109fa40066004000f200470091007800ed80400018
:109fb40091407800014878006e0047001000780056
:109fc40067004000f200470091007800ee804000f6
:109fd40091407800014878006800470080007800cc
:109fe400700047001000780021fe070000f0a70071
:109ff4000000ea000000ea004f00de0000407800a4
:10a004000080fa00000006001400fa00f200470085
:10a01400800878000040eb00004f7800e100470022
:10a02400070009008058eb008e00e800700047002c
:10a03400010878006a0047006afe07000004e00097
:10a04400680032006a004700900090001000780019
:10a0540072014700120178000089be006e004700bb
:10a064001000780061406000804078007200470072
:10a074001000780064004000014878006e0047003a
:10a0840010007800620060000000e000060032006a
:10a09400720047001000780021c0b3006500400042
:10a0a400014878000500370072004700100078006e
:10a0b40011c0b300650040000148780070004700fb
:10a0c400100078009040780072004700100078007b
:10a0d40067004000014878007000470010007800d5
:10a0e4000000e800904078007200470010007800fb
:10a0f40068004000014878007000470010007800b4
:10a104000080e8009040780072004700100078005a
:10a114006900400001487800700047001000780092
:10a1240063004000904078007200470010007800ff
:10a134006a00400001487800700047001000780071
:10a1440064004000904078007200470010007800de
:10a154006b00400001487800700047001000780050
:10a1640065004000904078007200470010007800bd
:10a174006c0040000148780070004700100078002f
:10a18400660040009040780072004700100078009c
:10a194006d0040000148780070004700100078000e
:10a1a400670040009040780072004700100078007b
:10a1b4006e004000014878006e00470010007800ef
:10a1c4004200de006f40600080407800720047006b
:10a1d40010007800660040000148780010c0b30009
:10a1e400004f78001e4078000080fa00000006004e
:10a1f4000000fa00502080004d00de006140600045
:10a204000080fb0000f0a7000000ea000000ea0064
:10a214004f00de00004078000080fa0000000600d5
:10a224000000fa00502080004b00de006140600016
:10a234000080fb0000f0a7000000ea000000ea0034
:10a244004f00de00004078000080fa0000000600a5
:10a254000000fa00502080004c00de0061406000e5
:10a264000080fb0000f0a7000000ea000000ea0004
:10a274004f00de00004078000080fa000000060075
:10a284000600fa000000eb00000f780064004700ad
:10a294000121800001087800640047001000780064
:10a2a4000000e000170032008000eb000e80e800a0
:10a2b400010878000f0037000e80e8009000780055
:10a2c40064004700100078000100de0061006000b7
:10a2d400004078000004e000010032001e0fe80096
:10a2e4000e80e800100078008000e8000e80e8008e
:10a2f400010878000e80e80010007800ef0f50008d
:10a30400edff36001e007800004078000080fa005f
:10a31400000006000000fa000ac4a9000cc4a8004a
:10a3240001208000f08f2f00008060000080a000da
:10a33400002088000000000001208000000e2000a2
:10a344008080600000022000808f5000faff3a00f5
:10a354000080fa00000006000000fa000080fa0005
:10a36400000006000000fa000080fa000000060069
:10a374000000fa000080fa00000006000000fa0065
:10a384000080fa00000006000200fa00000f7800c6
:10a394001e007800e10f500009003200e10f500068
:10a3a40005003900e20f500007003200e30f5000af
:10a3b400070032000800370001eba8000600370050
:10a3c40011eba8000400370021eba80002003700bd
:10a3d40031eba800000000000080fa000000060035
:10a3e4000400fa00000f78000e80e80001087800ed
:10a3f4001e007800e10f50000c003200e10f500005
:10a4040005003900e20f50000d003200e30f500048
:10a4140010003200140037000e80e800900078002d
:10a4240021588800062bef000f0037000e80e8004b
:10a4340090007800a1588800162bef000a0037001e
:10a444000e80e8009000780021598800262bef0048
:10a45400050037000e80e80090007800a1598800bc
:10a46400362bef00000000000080fa000000060018
:10a474000400fa00000f78000e80e800010878005c
:10a484001e007800e10f50000b003200e10f500075
:10a4940005003900e20f50000b003200e30f5000ba
:10a4a4000d003200100037000e80e80090007800a4
:10a4b400615888000c0037000e80e8009000780096
:10a4c400e1588800080037000e80e800900078000a
:10a4d40061598800040037000e80e800900078007d
:10a4e400e1598800000000000080fa000000060026
:10a4f4000c00fa00889fbe008a1f78006804470099
:10a50400004c78006a004700010878008000eb00e6
:10a514000e80e800010878000000eb00000f7800ce
:10a524006000b80064044700008cbe006800470067
:10a53400104078000080fb00c400dd0000202100f2
:10a544000080400010007800e10060000e80e80008
:10a55400010878000e80e800100078000000e00098
:10a564001e003a0068004700104078000080fb009d
:10a57400c400dd000020210000804000900078002d
:10a58400c0ff2100008060004200de008000eb007c
:10a594006a014700120178000089be006a00470082
:10a5a40010007800e4004000910078000100a10050
:10a5b40064004000010878006800470010407800fb
:10a5c4000080fb00c400dd0000202100008040006a
:10a5d40010007800620f60006c00370068004700cc
:10a5e400104078000080fb00c400dd000020210042
:10a5f40000804000100078006104b800c0ff210012
:10a60400010020000805780009047800800478001f
:10a6140081007800090065008100640081037800ee
:10a62400000378000600be0064034700008bbe00f0
:10a63400640047009000900010007800c000dd0026
:10a64400000020006a03470016037800008bbe0058
:10a654006a0047001000780010047800900490000d
:10a6640068004700104078000080fb004400dd00d3
:10a674008080e80000202100008040001000780065
:10a684006103b800f0ff20000100200006057800f7
:10a6940007037800800378008100780007006500d4
:10a6a4008100630081027800000278004628dd0002
:10a6b400ca20de00810070004620dd000800400052
:10a6c400898048006a02470014027800008abe00ac
:10a6d4006a0047001000780010037800900390008f
:10a6e40068004700104078000080fb004400dd0053
:10a6f400e4004000002021000080400010007800a9
:10a704004a00de006102b800f0ff2f0001002000c3
:10a714000404780005027800800278008100780043
:10a724000500640081006200810178000001780066
:10a734000200be0006004000878048006a0147000e
:10a74400120178000089be006a00470010007800fa
:10a75400e4004000910078000100a0006400400083
:10a764000108780068004700104078000080fb0072
:10a774004400dd00e400400000202100008040008f
:10a784009000780000202000008f60001e007800f8
:10a794000000e000080032006a0047001000780062
:10a7a400e4004000910078000110a0006400400023
:10a7b400010878009a0037006a004700100078000a
:10a7c400e4004000910078000110a1006400400002
:10a7d400010878006a004700100078006600400015
:10a7e4001001780068004700104078000080fb00ea
:10a7f4004400dd00e600400000202100008040000d
:10a804001000780000407800004978006a00470092
:10a814001000780066004000100078000000e80096
:10a82400e8004700914078008180fb00c408dd0007
:10a8340066814000012021008100410091007800e0
:10a84400c808de0081407800014878006a004700ab
:10a854001000780066004000100078000080e800d6
:10a86400e8004700914078008180fb00c408dd00c7
:10a87400688140000120210081004100910078009e
:10a8840081407800014878006a0047001000780091
:10a89400660040001000780063004000e8004700b4
:10a8a400914078008180fb00c408dd00688140008d
:10a8b400012021008100410091007800c808de00d9
:10a8c40081407800014878006a0047001000780051
:10a8d400660040001000780064004000e800470073
:10a8e400914078008180fb00c408dd006a8140004b
:10a8f400012021008100410091007800814078000e
:10a90400014878006a0047001000780066004000a3
:10a914001000780065004000e8004700914078008e
:10a924008180fb00c408dd006a8140000120210011
:10a934008100410091007800c808de008140780061
:10a94400014878006a004700100078006600400063
:10a954001000780066004000e8004700914078004d
:10a964008180fb00c408dd006c81400001202100cf
:10a97400810041009100780081407800014878000e
:10a984006a0047001000780066004000100078005c
:10a9940067004000e8004700914078008180fb0098
:10a9a400c408dd006c8140000120210081004100c9
:10a9b40091007800c808de008140780001487800e2
:10a9c40068004700104078000080fb004400dd0070
:10a9d400e4004000002021000080400010007800c6
:10a9e400004078006f4060006f4060006f4060007e
:10a9f400ea004700910078000080fb006f006000cf
:10aa04004200dd00648140009201780032fc2f0096
:10aa14000281610002017000648040000208780035
:10aa24004f0578004f04be000080fa0000000600c5
:10aa34000400fa00000f78000e80e8000108780096
:10aa44000e80e800100078006400400010007800d8
:10aa5400610060000000e00018003a000e80e80089
:10aa640010007800900090001000780080007800ba
:10aa7400f07f200000806000c200dd001e0078002e
:10aa8400010878001e80e8008000eb0001087800cf
:10aa94009e007800648040008e80e8009100780079
:10aaa400e480400091007800c208de00efc060003e
:10aab4008180fb00010878002a0037000e80e8003e
:10aac4001000780090009000100078004008de002c
:10aad40080007800c0ff21000080600080007800c2
:10aae4000100a0001e007800010878001e81e80023
:10aaf4000e80e800100078009000900010007800ac
:10ab0400ca09dd004600de0000807100c608de00d0
:10ab140080007800f0ff20000080600000097800c9
:10ab24009e007800648140000e80e80010007800e8
:10ab340064004000100078004200de006f406000b6
:10ab44008081fb000e80e8001000780090009000e7
:10ab540010007800000078004a00dd000080410009
:10ab6400000978000e80e8001000780066004000bc
:10ab7400100078000000e0004b0032009e017800d5
:10ab8400668041008e80e80091007800e6804000f5
:10ab9400910078008100e800914078008180fb00fa
:10aba4004809dd008e80e80091007800e6804000ce
:10abb40091007800914078008180fb008100410081
:10abc400010878009e007800688040008e80e800cc
:10abd40091007800e680400091007800e380400016
:10abe400914078008180fb004809dd008e80e800f8
:10abf40091007800e6804000910078008180e800b0
:10ac0400914078008180fb008100410001087800b8
:10ac14009e0178006a8041008e80e80091007800ef
:10ac2400e680400091007800e58040009140780083
:10ac34008180fb004809dd008e80e80091007800e7
:10ac4400e680400091007800e48040009140780064
:10ac54008180fb0081004100010878009e0078009b
:10ac64006c8040008e80e80091007800e68040000f
:10ac740091007800e7804000914078008180fb00db
:10ac84004809dd008e80e80091007800e6804000ed
:10ac940091007800e6804000914078008180fb00bc
:10aca40081004100010878000080fa0000000600dd
:10acb4000000fa002708a9000c25ef0001288000f5
:10acc400f08f2f000080600000a0a0000028880002
:10acd4000000000001288000000e20008080600039
:10ace40000082000808f5000faff3a003000200056
:10acf40080288800801920009028880010002800ef
:10ad04003028880010002000a02888000025ef00cb
:10ad14000005a800c1288000c0ff2f00008060004b
:10ad2400c0288800802980007f0060008029880076
:10ad3400a02980007f006000a0298800c02980002d
:10ad44007f006000c029880081298000c0ff2f0097
:10ad54000080600080298800a1298000c0ff2f00a6
:10ad640000806000a0298800c1298000c0ff2f0056
:10ad740000806000c02988003225ef003625ef00ee
:10ad84003a25ef003065a9003465a9003865a900ab
:10ad9400002a80007f006000002a8800012a8000c9
:10ada400c0ff2f0000806000002a88004225ef00c9
:10adb4004065a9000129800000ff2f000080600089
:10adc4000030a000002988000005a90030e5a80093
:10add40031e5a80032e5a80033e5a80034e5a80071
:10ade40035e5a80036e5a80037e5a80081298000ec
:10adf400c0ff2f0000806000802988008129800026
:10ae0400f0cf2f0000806000802988009129800005
:10ae1400c0ff2f00008060009029880091298000e5
:10ae2400f0cf2f000080600090298800a1298000c5
:10ae3400c0ff2f0000806000a0298800a1298000a5
:10ae4400f0cf2f0000806000a0298800b129800085
:10ae5400c0ff2f0000806000b0298800b129800065
:10ae6400f0cf2f0000806000b02988002025ef007b
:10ae74002225ef002825ef002a25ef000a25a90046
:10ae840001288000f08f2f000080600000288800d7
:10ae94000000000001288000000e200000806000f7
:10aea4000000e000fbff3a00e0a625008e01070049
:10aeb40020a825009601070060a925009e0107002f
:10aec400a0aa2500a5010700c0ab2500ad0107001d
:10aed4002708a8000c25a8000ca5a80026e8a800af
:10aee4000080fa00000006000000fa002054200050
:10aef40080007800300020005dfd07000020210064
:10af0400800078003000200035fd0700300020006c
:10af14001dfd07000080fa00000006000000fa0092
:10af240000542000800078001000200050fd07002d
:10af340000202100800078001000200028fd070078
:10af44001000200010fd07000080fa000000060039
:10af54000400fa008e80e800800878000000eb000e
:10af6400000f780025000700e40f500008003200ad
:10af74000e80e80010007800e10f50000400320059
:10af84000e80e80010007800e40f500016003a002c
:10af94000e80e800100078000040780067406000f0
:10afa4000080fb00670060004800dd00022880008c
:10afb400f18f2f00810061000100700000288800db
:10afc40000000000002880004500de0067406000ab
:10afd4000080fb008e80e80091007800810f500013
:10afe400f8ff3a000200370010002000000f78003c
:10aff4001e0078000080fa00000006000000fa003d
:10b00400002880004500de00674060000080fb00ef
:10b014000080fa00000006000c00fa0068014700f6
:10b02400000978006a004700010878000000eb007e
:10b03400000f7800015320000e80e800010878001a
:10b044008040eb0066004700014878006a00470032
:10b054001000780064004000100078004200de0018
:10b064006f4060000080fb00e80f500001003400d6
:10b074001e00a0008000eb00640047000108780077
:10b08400340037000e80e80010007800904078000b
:10b0940000c8b30000c060000004e00023003200d8
:10b0a4000e80e800100078001040780068406000ce
:10b0b4000004e0001d003a00012021006400470064
:10b0c400100078004400dd0000804000ea004700e2
:10b0d4009100780056fe07006800470010007800d1
:10b0e40000407800e34060000e80e8001000780023
:10b0f400e3c0600090417800c2cfb30002c1610098
:10b1040081407100014878000e80e800100078004a
:10b11400904078000134a0000148780011c0b300c9
:10b1240066004700014878000e0037000e80e800f2
:10b13400100078008000e8000e80e8000108780024
:10b1440064004700100078008000e80064004700b5
:10b15400010878006400470010007800e70f5000f1
:10b16400c8ff360066004700104078000004a200c3
:10b174000004e000020032009e007800638f70003b
:10b184001e0078000080fa00000006000800fa00a3
:10b19400e6004700800878008040eb000e80e8005d
:10b1a40001487800660047001000780066004000ff
:10b1b400100078000000e00003003a000e80e80070
:10b1c40010407800340037006400470001298000f3
:10b1d4000108780064004700100078000000e000d7
:10b1e4002b0032000000eb00000f78002300370032
:10b1f400b0838000e4004700910078000008de007e
:10b2040061006000004078000004e0000f0032009c
:10b21400b083800000407800e60047009100780089
:10b22400b3fc0700b0838000110020000008dd009b
:10b234000080ea00012980000100600000298800e4
:10b2440011c0b3000e80e80001487800b08380008c
:10b254000000e800b0838800b0838000ef0f500046
:10b26400010036007630ef000e80e80010407800d0
:10b274000004e00005003a001e0fe8001e007800fc
:10b28400ef0f5000daff3600010037000000000025
:10b294000e80e800104078000080fa0000000600ec
:10b2a4000000fa00502880004d00de00614060007c
:10b2b4000080fb0000f0a7000000ea000000ea00a4
:10b2c4004f00de00004078000080fa000000060015
:10b2d4000000fa00502880004b00de00614060004e
:10b2e4000080fb0000f0a7000000ea000000ea0074
:10b2f4004f00de00004078000080fa0000000600e5
:10b304000000fa00502880004900de00614060001f
:10b314000080fb0000f0a7000000ea000000ea0043
:10b324004f00de00004078000080fa0000000600b4
:10b334000200fa000040eb00004f78000ec5bf0089
:10b344000004e000050032000ec5bf000004e00068
:10b354000200350010c0b300004f78001e40780092
:10b364000080fa00000006000000fa005028800067
:10b374004c00de00614060000080fb0000f0a7008c
:10b384000000ea000000ea004f00de000040780000
:10b394000080fa00000006000000fa005028800037
:10b3a4004a00de00614060000080fb0000f0a7005e
:10b3b4000000ea000000ea004f00de0000407800d0
:10b3c4000080fa00000006000200fa000040eb00d2
:10b3d400004f78000fc5bf000004e00005003200f4
:10b3e4000fc5bf000004e0000200350010c0b30028
:10b3f400004f78001e4078000080fa00000006002c
:10b404000600fa000000eb00000f7800640047001b
:10b4140001298000010878006400470010007800ca
:10b424000000e000170032008000eb000e80e8000e
:10b43400010878000f0037000e80e80090007800c3
:10b4440064004700100078000100de006100600025
:10b45400004078000004e000010032001e0fe80004
:10b464000e80e800100078008000e8000e80e800fc
:10b47400010878000e80e80010007800ef0f5000fb
:10b48400edff36001e007800004078000080fa00ce
:10b49400000006000000fa000ac5a9000cc5a800b7
:10b4a40001288000f08f2f00008060000080a00041
:10b4b400002888000000000001288000000e200001
:10b4c4008080600000022000808f5000faff3a0064
:10b4d4000080fa00000006000000fa00880107005e
:10b4e4000080fa00000006000200fa00000f780055
:10b4f4001e007800608388000080fa0000000600c7
:10b504000000fa00810107000080fa000000060034
:10b514000200fa00000f78001e0078007083880093
:10b524000080fa00000006000000fa007a0107001b
:10b534000080fa00000006000200fa00000f780004
:10b544001e007800808388000080fa000000060056
:10b554000000fa000080fa00000006000200fa0071
:10b56400000f78001e007800908388000080fa00a5
:10b57400000006000000fa006a0107000080fa00db
:10b58400000006000200fa00000f78001e00780098
:10b59400a08388000080fa00000006001400fa006e
:10b5a4007001470000097800720047000108780024
:10b5b40003000900001feb008e00b1006e0047007d
:10b5c4000e08780072004700100078009000900088
:10b5d40010007800680147000089be00720047002f
:10b5e4001000780064004000104078006140600062
:10b5f4000080fb0061006000ec00470091007800cf
:10b604000100a100810070006c004700010878006f
:10b614007200470010007800650040001040780078
:10b62400614060000080fb00610060000000400099
:10b63400ec004700910078000110a1008100700027
:10b644006c00470001087800720047001000780081
:10b6540066004000104078006f4060000080fb00ee
:10b664006f0060004200dd00ec004700110178002b
:10b6740031fc2f0081006100810070006c004700e4
:10b68400010878006e0047009000780072004700bf
:10b69400100078006700400010407800804878006f
:10b6a4006e004700100078000000e800f200470038
:10b6b40091007800e88040009140780001487800cb
:10b6c4006e004700100078000080e800f200470098
:10b6d40091007800e98040009140780001487800aa
:10b6e4006e0047001000780063004000f20047003d
:10b6f40091007800ea804000914078000148780089
:10b704006e0047001000780064004000f20047001b
:10b7140091007800eb804000914078000148780067
:10b724006e0047001000780065004000f2004700fa
:10b7340091007800ec804000914078000148780046
:10b744006e0047001000780066004000f2004700d9
:10b7540091007800ed804000914078000148780025
:10b764006e0047001000780067004000f2004700b8
:10b7740091007800ee804000914078000148780004
:10b7840068004700800078007000470010007800cf
:10b7940021fe070000f0a7000000ea000000ea0014
:10b7a4004f00de00004078000080fa000000060030
:10b7b4001400fa00f2004700800878000040eb0013
:10b7c400004f7800e1004700070009008058eb00b3
:10b7d4008e00e80070004700010878006a00470006
:10b7e4006afe07000004e000680032006a004700b7
:10b7f4009000900010007800720147001201780058
:10b804000089be006e0047001000780061406000af
:10b814008040780072004700100078006400400007
:10b82400014878006e004700100078006200600054
:10b834000000e000060032007200470010007800ab
:10b8440021c0b300650040000148780005003700be
:10b85400720047001000780011c0b300650040007a
:10b86400014878007000470010007800904078008c
:10b87400720047001000780067004000014878001b
:10b8840070004700100078000000e8009040780045
:10b8940072004700100078006800400001487800fa
:10b8a40070004700100078000080e80090407800a5
:10b8b40072004700100078006900400001487800d9
:10b8c400700047001000780063004000904078004a
:10b8d40072004700100078006a00400001487800b8
:10b8e4007000470010007800640040009040780029
:10b8f40072004700100078006b0040000148780097
:10b904007000470010007800650040009040780007
:10b9140072004700100078006c0040000148780075
:10b9240070004700100078006600400090407800e6
:10b9340072004700100078006d0040000148780054
:10b9440070004700100078006700400090407800c5
:10b9540072004700100078006e0040000148780033
:10b964006e004700100078004200de006f40600067
:10b9740080407800720047001000780066004000a4
:10b984000148780010c0b300004f78001e407800d2
:10b994000080fa00000006000000fa005028800031
:10b9a4004d00de00614060000080fb0000f0a70055
:10b9b4000000ea000000ea004f00de0000407800ca
:10b9c4000080fa00000006000000fa005028800001
:10b9d4004b00de00614060000080fb0000f0a70027
:10b9e4000000ea000000ea004f00de00004078009a
:10b9f4000080fa00000006000000fa0050288000d1
:10ba04004c00de00614060000080fb0000f0a700f5
:10ba14000000ea000000ea004f00de000040780069
:10ba24000080fa00000006000600fa000000eb00a7
:10ba3400000f7800640047000129800001087800a5
:10ba440064004700100078000000e0001700320096
:10ba54008000eb000e80e800010878000f0037003a
:10ba64000e80e80090007800640047001000780021
:10ba74000100de0061006000004078000004e00086
:10ba8400010032001e0fe8000e80e800100078006c
:10ba94008000e8000e80e800010878000e80e800cd
:10baa40010007800ef0f5000edff36001e00780004
:10bab400004078000080fa00000006000000fa0050
:10bac4000ac5a9000cc5a80001288000f08f2f002a
:10bad400008060000080a0000028880000000000b2
:10bae40001288000000e20008080600000022000f9
:10baf400808f5000faff3a000080fa000000060030
:10bb04000000fa000080fa00000006000000fa00bd
:10bb14000080fa00000006000000fa000080fa002d
:10bb2400000006000000fa000080fa000000060091
:10bb34000000fa003430ef003630ef003170ef00cf
:10bb44003270ef003370ef0060f9250076060700cd
:10bb5400a3070700faf6070006f70700e2fc070050
:10bb6400eefc070080fa25009cf80700a0fd2500e4
:10bb740084fe0700740607003010a9003030a900c5
:10bb84003050a9003070a9003090a90030b0a8004e
:10bb9400040221006000b8006011b800009abe00e1
:10bba4000292be0002022100100c200001002000bd
:10bbb4000089be000002210064004000010321004e
:10bbc40091407800014878004108210000022100da
:10bbd4006600400001087800840221006000b8007b
:10bbe4006011b800009abe000292be0082022100d9
:10bbf400200c2000010020000089be0080022100ea
:10bc0400640040000103210091407800014878005d
:10bc140040082100e8004000800221006600400046
:10bc240001087800840021006000b8006011b800a9
:10bc3400009abe000292be0082002100b0012000e2
:10bc4400010020000089be00800021006400400043
:10bc54000103210091407800014878004008210048
:10bc6400f0004000800021006600400001087800d8
:10bc7400840121006000b8006011b800009abe0081
:10bc84000292be0082012100a002200001002000d7
:10bc94000089be00800121006400400001032100ee
:10bca400914078000148780040082100f8004000e5
:10bcb400800121006600400001087800400821004e
:10bcc4000102200080804000000021006600400046
:10bcd4000108780040082100810220008080400093
:10bce4000001210066004000010878008000210066
:10bcf40066004000100078006700400071c0b30087
:10bd0400014878008001210066004000100078009e
:10bd14006700400071c0b30001487800054ea800d8
:10bd240024cea8000100370000000000400b2100d1
:10bd34004a01070033f0b700a2818000b38180007c
:10bd4400e0818000f1818000800f5100818f5900d3
:10bd54000c003900a0818000b18180006a0040009d
:10bd6400e0804800e0818800f181880081002100a2
:10bd740020002000bef607008101210020002000e1
:10bd8400a5fc0700a2818000b381800000828000ae
:10bd940011828000800f5100818f59000c003900fe
:10bda400a0818000b181800074004000e0804800e0
:10bdb400008288001182880032d0bf000040e80071
:10bdc40032f0b70021c0b300b0c0b3009100070047
:10bdd400a2818000b3818000c0818000d181800075
:10bde400800f5100818f5900cfff3900a08180005e
:10bdf400b18180004006b0000180b000c08188009d
:10be0400d181880031d0bf000040e80031f0b70094
:10be140033d0bf000004e000320032008002210071
:10be240066004000100078000000e800510b21007b
:10be340091407800014878008002210066004000ab
:10be4400100078000080e800610b21009140780028
:10be5400014878008002210066004000100078004c
:10be640063004000710b2100914078000148780084
:10be74008002210066004000100078006400400049
:10be8400810b210091407800014878008002210054
:10be9400660040001000780065004000910b21000e
:10bea400914078000148780080022100660040003b
:10beb4001000780066004000a10b2100914078003a
:10bec40001487800800221006600400010007800dc
:10bed40067004000b10b21009140780001487800d0
:10bee4003370ef00000221006600400090007800eb
:10bef40031d0bf00804878008002210066004000f5
:10bf04009000780031d0bf00804878000102210001
:10bf14001000200056f607008102210010002000c6
:10bf24003dfc070081ff37000000fa00a08180007b
:10bf3400b181800061004000e0804800a081880059
:10bf4400b18188000080fa00000006000000fa00b9
:10bf540000002100a3f607000004e00012003200f4
:10bf6400000021001001780090019000a001200041
:10bf740001002000800f5100818f59000a003a000f
:10bf84008001210066004000100078006700400036
:10bf940001002100e680400091007800e780400025
:10bfa40091407800014878000080fa000000060003
:10bfb4000000fa000001210074fc07000004e00006
:10bfc400120032000001210010017800900190005d
:10bfd400b002200001002000800f5100818f590021
:10bfe4000a003a008000210066004000100078003a
:10bff4006700400001012100e680400091007800c4
:10c00400e780400091407800014878000080fa0001
:10c01400000006000a00fa006801470000497800a1
:10c024006900470001487800a0818000b181800048
:10c03400a200200003002000021f400003974800d4
:10c044006800470010407800ef406000640047003b
:10c054000148780069004700104078000080fb0028
:10c064004400dd000040780003c3b3008340600057
:10c07400640047001040780080c0700064004700ee
:10c08400014878006400470010407800e1406000f7
:10c0940065004700014878006400470010407800bc
:10c0a4000080fb000000d10000407800e140600007
:10c0b400650047001040780080c0680065004700b4
:10c0c4000148780064004700104078000080fb00bd
:10c0d4004200de0000407800e14060006500470057
:10c0e4001040780080c0680065004700014878006f
:10c0f40064004700104078000080fb004400de002c
:10c1040000407800e140600065004700104078007e
:10c1140080c068006500470001487800640047005b
:10c12400104078000080fb000000d100004078003f
:10c13400e140600066004700014878006400470061
:10c14400104078000080fb004300de0000407800cf
:10c15400e1406000660047001040780080c068003d
:10c1640066004700014878006400470010407800ea
:10c174000080fb004400de0000407800e1406000e5
:10c18400660047001040780080c0680066004700e1
:10c194000148780064004700104078000080fb00ec
:10c1a4004500de0000407800e14060006600470082
:10c1b4001040780080c0680066004700014878009d
:10c1c4006600470010407800804078000104a20017
:10c1d4006600470001487800650047001040780079
:10c1e4000080fb00610060004600dd0080407800b4
:10c1f400640047001040780080c07000640047006d
:10c204000148780066004700104078000080fb0079
:10c214004700dd008040780064004700104078004b
:10c2240080c0700064004700014878003362a800b1
:10c234000040eb003702070050c5b3003502070089
:10c244006400470010407800320207001e007800a6
:10c254009e0090000080fa00000006000400fa002e
:10c26400881f78008e80e800800878008040eb000a
:10c274000e00e800014878000284800013848000e6
:10c28400a0818000b1818000800f5100818f59000e
:10c2940020003e000040eb00004f7800070037000c
:10c2a4001e80fb008e80e800910078000080400032
:10c2b4008040eb00014878001e4fe8001e407800e3
:10c2c400ea4f5000f6ff36000040eb00004f7800c4
:10c2d4000a0037001e80fb008e80e8009100780081
:10c2e40000844000f5010700004c78001e4fe80070
:10c2f40011c0b3000e00e800014878001e40780029
:10c30400ea4f500003003e00170207000004e0005b
:10c31400f0ff3a000e00e800104078004f04780067
:10c324000080fa00000006000000fa002188a9003d
:10c334002168a90080002000001188002222ef005b
:10c344004004200040118800000e21005082880023
:10c35400000e210040828800900e21003082880067
:10c36400900e2100208288004c70ef00201e2600d1
:10c374000700070000202600140007002168a80019
:10c3840021e2a8002342a8000080fa000000060071
:10c394000200fa00000f78001e0078000000e000a0
:10c3a40003003a00201e2600708288000200370035
:10c3b4009e007800718288000080fa000000060068
:10c3c4000000fa000080fa00000006000200fa00f3
:10c3d400000f78001e0078000000e00003003a001f
:10c3e4000020260080828800020037009e0078002a
:10c3f400818288000080fa00000006000000fa0034
:10c404000080fa00000006000200fa000040eb0081
:10c41400004f7800000000003182800020828000fc
:10c42400808f5000fcff320030828000104f780073
:10c43400308280000000e800308288003182800071
:10c44400200f2100808f500002003a00900e21003e
:10c45400308288001e4078000080fa000000060048
:10c464000200fa00004f7800000000001c000700e2
:10c474000004a2000004e000fcff3a0040828000b7
:10c484001e487800408280000000e8004082880056
:10c4940041828000900e2100808f500002003a00fb
:10c4a400000e2100408288002188a8000080fa0044
:10c4b400000006000000fa00318280002082800023
:10c4c4000080680000f0a7000000ea000000ea0015
:10c4d4004f00de00004078000080fa0000000600f3
:10c4e4000400fa000e80e800518280000108780000
:10c4f400418280000e80e80010007800808f500098
:10c50400070031000e80e80090007800408280002f
:10c51400008050000000e900000f7800060037009a
:10c524000e80e80090007800408280000080500077
:10c5340068004000000f78001e00780000f0a7009b
:10c544000000ea000000ea004f00de00004078002e
:10c554000080fa00000006000000fa00418280001a
:10c5640050828000808f500009003a001111800031
:10c57400001020000080600000f0a7000000ea0026
:10c584000000ea004f00de000040780001003700a0
:10c594000040eb000080fa00000006000400fa00ee
:10c5a4000e80e8002182800001087800318280003a
:10c5b4000e80e80010007800810f50000700310061
:10c5c4000e80e800900078003082800000805000e7
:10c5d40069004000000f7800040037000e80e80076
:10c5e4009000780030828000008f5000f00f20000f
:10c5f4009e007800808f50000200360000c0eb00df
:10c60400020037001e007800004078000080fa0025
:10c61400000006000400fa000e80e8005182800049
:10c6240001087800418280000e80e8001000780044
:10c63400808f5000070031000e80e80090007800e1
:10c6440040828000008050000000e900000f780064
:10c65400060037000e80e8009000780040828000d9
:10c664000080500068004000000f7800f00f2000a8
:10c674009e007800808f50000200360000c0eb005e
:10c68400020037001e007800004078000080fa00a5
:10c69400000006000800fa00640147000009780061
:10c6a4006600470001087800bcff07000080fb001b
:10c6b400000f780066004700100078009e0f5000bd
:10c6c4000200310066004700100f78008000eb0084
:10c6d4000e80e800010878000e0037004aff0700ca
:10c6e400e400470091007800804878006400470027
:10c6f400100078008000e80064004700010878001a
:10c704000e80e800100078008000e8000e80e80049
:10c71400010878000e80e800100078009e0f500099
:10c72400eeff39001e0078000080fa0000000600c9
:10c734000800fa0064014700000978006600470019
:10c7440001087800b3ff07000080fb00000f7800a9
:10c7540066004700100078009e0f50000200310070
:10c7640066004700100f78008000eb000e80e800a0
:10c77400010878000e0037006400470010007800bc
:10c7840010407800e4004700910078000101e800bf
:10c79400e40047008208780031ff07000e80e800bb
:10c7a400100078008000e8000e80e800010878009e
:10c7b4000e80e800100078009e0f5000eeff390054
:10c7c4001e0078000080fa00000006000400fa0051
:10c7d4000000eb00000f780070ff07008e80e80077
:10c7e400804878008bff0700e3004700804878000a
:10c7f4000e80e800104078000080fb000000e0009c
:10c8040003003200e90f5000030032000400370037
:10c814001e20a000040037001e00a0000200370004
:10c824001e10a000000000006300470010407800c4
:10c834000080fb000000e00003003200e90f50001c
:10c8440003003200040037001e30a000020037004d
:10c854001e40a000000000001e0078000080fa00c6
:10c86400000006000400fa008e80e80080087800ca
:10c87400318280000e80e80010007800008f4000b4
:10c88400020037009e007800698f5000200f2100bd
:10c894009e007800808f5000faff3e001e00780052
:10c8a400104078000080fa00000006000000fa0042
:10c8b4003aff07000080fb000000e9004f00de00a3
:10c8c400004078000080fa00000006000000fa0032
:10c8d40050ff07000080fb000000e9004f00de006d
:10c8e400004078000080fa00000006000000fa0012
:10c8f400101180000080fa00000006000000fa0019
:10c9040044ff07000004e000100032005182800060
:10c9140040828000808f50000600360050828000e4
:10c924008000780040828000008050000000e90010
:10c934000700370050828000800078004082800029
:10c944000080500068004000010037000000eb0048
:10c954000080fa00000006000000fa000fff070044
:10c964000004e00010003200318280002082800048
:10c97400808f5000060036003082800080007800ee
:10c9840020828000008050000000e900070037008a
:10c994003082800080007800208280000080500077
:10c9a40068004000010037000000eb000080fa003e
:10c9b400000006000000fa0021e2a8002342a800bb
:10c9c4000080fa00000006000000fa0021e2a9003d
:10c9d4002342a9000080fa00000006000000fa00cb
:10c9e40023e8a90023c8a900800020008011880042
:10c9f4003222ef00001a2000c0118800003021000c
:10ca0400c082880000302100b0828800903021006c
:10ca1400a082880090302100908288005a70ef0034
:10ca2400c053260007000700a05526001400070085
:10ca340023c8a80031e2a8003342a8000080fa000d
:10ca4400000006000200fa00000f78001e007800c3
:10ca54000000e00003003a00c0532600e082880092
:10ca6400020037009e007800e18288000080fa000e
:10ca7400000006000000fa000080fa000000060032
:10ca84000200fa00000f78001e0078000000e000a9
:10ca940003003a00a0552600f08288000200370007
:10caa4009e007800f18288000080fa0000000600f1
:10cab4000000fa000080fa00000006000200fa00fc
:10cac4000040eb00004f780000000000a1828000cd
:10cad40090828000808f5000fcff3200a082800092
:10cae400104f7800a08280000000e800a082880037
:10caf400a182800020312100808f500002003a0082
:10cb040090302100a08288001e4078000080fa0046
:10cb1400000006000200fa00004f78000000000048
:10cb24001c0007000004a2000004e000fcff3a001f
:10cb3400b08280001e487800b08280000000e800c7
:10cb4400b0828800b182800090302100808f500034
:10cb540002003a0000302100b082880023e8a800d7
:10cb64000080fa00000006000000fa00a1828000a4
:10cb7400908280000080680000f0a7000000ea00b6
:10cb84000000ea004f00de00004078000080fa0058
:10cb9400000006000400fa000e80e800c182800054
:10cba40001087800b18280000e80e800100078004f
:10cbb400808f5000070031000e80e800900078005c
:10cbc400b0828000008050000000e900000f78006f
:10cbd400060037000e80e80090007800b0828000e4
:10cbe4000080500068004000000f78001e007800ac
:10cbf40000f0a7000000ea000000ea004f00de0099
:10cc0400004078000080fa00000006000000fa00ee
:10cc1400b1828000c0828000808f500009003a00f9
:10cc240091118000001020000080600000f0a70037
:10cc34000000ea000000ea004f00de000040780037
:10cc4400010037000040eb000080fa0000000600fd
:10cc54000400fa000e80e800918280000108780048
:10cc6400a18280000e80e80010007800810f50003f
:10cc7400070031000e80e80090007800a082800058
:10cc84000080500069004000000f78000400370065
:10cc94000e80e80090007800a0828000008f500091
:10cca400f00f20009e007800808f500002003600b4
:10ccb40000c0eb00020037001e007800004078003e
:10ccc4000080fa00000006000400fa000e80e8006c
:10ccd400c182800001087800b18280000e80e800e3
:10cce40010007800808f5000070031000e80e800ab
:10ccf40090007800b0828000008050000000e900bd
:10cd0400000f7800060037000e80e80090007800dd
:10cd1400b08280000080500068004000000f78005e
:10cd2400f00f20009e007800808f50000200360033
:10cd340000c0eb00020037001e00780000407800bd
:10cd44000080fa00000006000800fa0064014700b1
:10cd5400000978006600470001087800bcff07005e
:10cd64000080fb00000f7800660047001000780088
:10cd74009e0f50000200310066004700100f78003b
:10cd84008000eb000e80e800010878000e003700f8
:10cd94004aff0700e40047009100780080487800cb
:10cda40064004700100078008000e8006400470039
:10cdb400010878000e80e800100078008000e80088
:10cdc4000e80e800010878000e80e800100078006a
:10cdd4009e0f5000eeff39001e0078000080fa001c
:10cde400000006000800fa0064014700000978000a
:10cdf4006600470001087800b3ff07000080fb00cd
:10ce0400000f780066004700100078009e0f500065
:10ce14000200310066004700100f78008000eb002c
:10ce24000e80e800010878000e0037006400470017
:10ce34001000780010407800e4004700910078006a
:10ce44000101e800e40047008208780031ff070090
:10ce54000e80e800100078008000e8000e80e800f2
:10ce6400010878000e80e800100078009e0f500042
:10ce7400eeff39001e0078000080fa000000060072
:10ce84000400fa000000eb00000f780070ff0700b8
:10ce94008e80e800804878008bff0700e30047009d
:10cea400804878000e80e800104078000080fb0085
:10ceb4000000e00003003200e90f500003003200dc
:10cec400040037001e20a000040037001e00a0004c
:10ced400020037001e10a00000000000630047009d
:10cee400104078000080fb000000e00003003200e6
:10cef400e90f500003003200040037001e30a00088
:10cf0400020037001e40a000000000001e00780050
:10cf14000080fa00000006000400fa008e80e80099
:10cf240080087800a18280000e80e800100078005c
:10cf3400008f4000020037009e007800698f500087
:10cf4400203121009e007800808f5000faff3e00bf
:10cf54001e007800104078000080fa0000000600ef
:10cf64000000fa003aff07000080fb000000e9001f
:10cf74004f00de00004078000080fa000000060048
:10cf84000000fa0050ff07000080fb000000e900e9
:10cf94004f00de00004078000080fa000000060028
:10cfa4000000fa00901180000080fa0000000600e2
:10cfb4000000fa0044ff07000004e0001000320003
:10cfc400c1828000b0828000808f5000060036004d
:10cfd400c082800080007800b08280000080500011
:10cfe4000000e90007003700c0828000800078005c
:10cff400b0828000008050006800400001003700cb
:10d004000000eb000080fa00000006000000fa00b7
:10d014000fff07000004e00010003200a18280002e
:10d0240090828000808f500006003600a08280002d
:10d034008000780090828000008050000000e900a9
:10d0440007003700a0828000800078009082800072
:10d054000080500068004000010037000000eb0031
:10d064000080fa00000006000000fa0031e2a80087
:10d074003342a8000080fa00000006000000fa0015
:10d0840031e2a9003342a9000080fa000000060042
:10d094000000fa00003a80000080fa000000060058
:10d0a4000200fa00faff0700000f78001e00780063
:10d0b400240007000004e000020032000000280001
:10d0c4007d0007001e0078002c0007000004e0002b
:10d0d4000200320000002400770007001e007800e0
:10d0e400360007000004e0000200320000202000a7
:10d0f400710007001e007800400007000004e000f3
:10d1040002003200000820006b0007001e007800b7
:10d114004a0007000004e00002003200000420007e
:10d12400650007001e007800540007000004e000ba
:10d1340002003200000120005f0007000080fa00b6
:10d14400000006000400fa008e80e80080087800e1
:10d154000040eb00004f78000e80e80010007800db
:10d164000000e00002003d0010c0b300004f780052
:10d174001e4078000080fa00000006000400fa0057
